:020000040800F2
:100000000050002085030008CD030008CD03000840
:10001000CD030008CD030008CD0300080000000058
:10002000000000000000000000000000CD030008F8
:10003000CD03000800000000CD030008E101000826
:10004000CD030008CD030008CD030008CD03000850
:10005000CD030008CD030008CD030008CD03000840
:10006000CD030008CD030008CD030008CD03000830
:10007000CD030008CD030008CD030008CD03000820
:10008000CD030008CD030008CD030008CD03000810
:10009000CD030008CD030008CD030008CD03000800
:1000A000CD030008CD030008CD030008CD030008F0
:1000B000CD030008CD030008CD030008CD030008E0
:1000C000CD030008CD030008CD030008CD030008D0
:1000D000CD030008CD030008CD030008CD030008C0
:1000E000CD030008CD030008CD0300080000000088
:1000F0000000000000000000000000000000000000
:0C01000000000000000000005FF808F1A3
:10010C000348044B834202D0034B03B1184770479A
:10011C000C0000200C000020000000000548064BDD
:10012C001B1AD90F01EBA301491002D0034B03B1E9
:10013C00184770470C0000200C0000200000000045
:10014C0010B5064C237843B9FFF7DAFF044B13B113
:10015C000448AFF300800123237010BD0C00002075
:10016C0000000000180A000808B5054B1BB1054932
:10017C000548AFF30080BDE80840FFF7CFBF00BFD4
:10018C000000000010000020180A000870B50026BE
:10019C000C4D0D4B5B1B9C10A64209D1002600F0A8
:1001AC0035FC0A4D0A4B5B1B9C10A64205D170BD59
:1001BC0055F8043B98470136EEE755F8043B984751
:1001CC000136F2E7300A0008300A0008300A00084D
:1001DC00340A000880B500AF00F040F900BF80BDC4
:1001EC0080B582B000AF00F0EDF800F0B9F800F087
:1001FC0057F800220221284800F00BFB0023FB716A
:10020C0000220221244800F004FB01220421224890
:10021C0000F0FFFA0821204800F0E4FA0346002B16
:10022C0001D10123FB7110211B4800F0DBFA0346BE
:10023C00002B01D10123FB7101220221164800F091
:10024C00E8FA00220421144800F0E3FA08211248CD
:10025C0000F0C8FA0346002B01D10123FB711021D9
:10026C000D4800F0BFFA0346002B01D10123FB71AE
:10027C00FB79002B06D000224FF40051074800F008
:10028C00C8FA05E001224FF40051044800F0C1FA0D
:10029C00142000F0FFF8B1E7000801400010014005
:1002AC0080B586B000AF07F1080300221A605A60CF
:1002BC009A60DA60274B9B69264A43F004039361EA
:1002CC00244B9B6903F004037B607B68214B9B6987
:1002DC00204A43F0100393611E4B9B6903F01003FB
:1002EC003B603B68012206211B4800F092FA062372
:1002FC00BB600123FB6000233B6102237B6107F1A0
:10030C0008031946144800F0E9F81823BB600023D1
:10031C00FB6001233B6107F1080319460E4800F00E
:10032C00DDF801224FF400510C4800F072FA4FF442
:10033C000053BB600123FB6000233B6102237B6104
:10034C0007F108031946054800F0C8F800BF183734
:10035C00BD4680BD00100240000801400010014065
:10036C0080B400AF00BFBD4680BC704780B400AF06
:10037C0000BFBD4680BC7047FFF7F8FF0B480C4927
:10038C000C4A002302E0D458C4500433C4188C42E5
:10039C00F9D3094A094C002301E013600432A2424C
:1003AC00FBD3FFF7F3FEFFF71BFF704700000020A5
:1003BC000C000020380A00080C0000202C00002043
:1003CC00FEE7000080B500AF084B1B68074A43F0FE
:1003DC0010031360032000F0E5FA0F2000F00EF874
:1003EC0000F006F80023184680BD00BF0020024034
:1003FC0080B400AF00BFBD4680BC704780B582B0F2
:10040C0000AF7860124B1A68124B1B7819464FF4E8
:10041C007A73B3FBF1F3B2FBF3F3184600F0E9FA8D
:10042C000346002B01D001230EE07B680F2B0AD86A
:10043C00002279684FF0FF3000F0BFFA064A7B6863
:10044C001360002300E0012318460837BD4680BD29
:10045C0000000020080000200400002080B400AF41
:10046C00054B1B781A46054B1B681344034A136053
:10047C0000BFBD4680BC704708000020280000204B
:10048C0080B400AF024B1B681846BD4680BC704759
:10049C002800002080B584B000AF7860FFF7F0FF33
:1004AC00B8607B68FB60FB68B3F1FF3F05D00A4B7B
:1004BC001B781A46FB681344FB6000BFFFF7E0FF94
:1004CC000246BB68D31AFA689A42F7D800BF00BF3D
:1004DC001037BD4680BD00BF0800002080B48BB033
:1004EC0000AF7860396000237B6200233B6269E1D6
:1004FC0001227B6A02FA03F3FB613B681B68FA6911
:10050C001340BB61BA69FB699A4240F058813B6861
:10051C005B689A4A93425ED0984A934275D8984A3F
:10052C00934258D0964A93426FD8964A934252D0EF
:10053C00944A934269D8944A93424CD0924A93423B
:10054C0063D8924A934246D0904A93425DD8122B7C
:10055C002AD8122B59D801A252F823F0E30500082F
:10056C00BD050008CF050008110600081706000895
:10057C0017060008170600081706000817060008DB
:10058C0017060008170600081706000817060008CB
:10059C0017060008170600081706000817060008BB
:1005AC00C5050008D9050008794A934213D02CE000
:1005BC003B68DB683B6229E03B68DB6804333B62E9
:1005CC0024E03B68DB6808333B621FE03B68DB6878
:1005DC000C333B621AE03B689B68002B02D104236E
:1005EC003B6213E03B689B68012B05D108233B62FF
:1005FC007B68FA691A6109E008233B627B68FA6937
:10060C005A6103E000233B6200E000BFBB69FF2B93
:10061C0001D87B6801E07B6804337B61BB69FF2BED
:10062C0002D87B6A9B0002E07B6A083B9B003B6123
:10063C007B691A680F213B6901FA03F3DB431A400B
:10064C00396A3B6901FA03F31A437B691A603B6808
:10065C005B6803F08053002B00F0B1804D4B9B691D
:10066C004C4A43F0010393614A4B9B6903F001032D
:10067C00BB60BB68484A7B6A9B08023352F8233044
:10068C00FB607B6A03F003039B000F2202FA03F367
:10069C00DB43FA681340FB607B68404A934213D0FB
:1006AC007B683F4A93420DD07B683E4A934207D009
:1006BC007B683D4A934201D1032306E0042304E006
:1006CC00022302E0012300E000237A6A02F0030215
:1006DC0092009340FA681343FB602F497B6A9B0896
:1006EC000233FA6841F823203B685B6803F48013FB
:1006FC00002B06D02D4B9A682C49BB6913438B6099
:10070C0006E02A4B9A68BB69DB43284913408B608F
:10071C003B685B6803F40013002B06D0234BDA68AC
:10072C002249BB691343CB6006E0204BDA68BB69F6
:10073C00DB431E491340CB603B685B6803F400331A
:10074C00002B06D0194B5A681849BB6913434B60F0
:10075C0006E0164B5A68BB69DB43144913404B60E7
:10076C003B685B6803F48033002B21D00F4B1A6875
:10077C000E49BB6913430B6021E000BF000032102F
:10078C000000311000002210000021100000121097
:10079C000000111000100240000001400008014050
:1007AC00000C014000100140001401400004014005
:1007BC000B4B1A68BB69DB43094913400B607B6A1E
:1007CC0001337B623B681A687B6A22FA03F3002BC5
:1007DC007FF48EAE00BF00BF2C37BD4680BC704787
:1007EC000004014080B485B000AF78600B467B807C
:1007FC007B689A687B881340002B02D00123FB7323
:10080C0001E00023FB73FB7B18461437BD4680BC0C
:10081C00704780B483B000AF78600B467B80134682
:10082C007B707B78002B03D07A887B681A6103E09D
:10083C007B881A047B681A6100BF0C37BD4680BCEC
:10084C007047000080B485B000AF78607B6803F01F
:10085C000703FB600C4BDB68BB60BA684FF6FF0309
:10086C001340BB60FB681A02BB68134343F0BF63C1
:10087C0043F40033BB60044ABB68D36000BF143739
:10088C00BD4680BC704700BF00ED00E080B400AFF7
:10089C00044BDB681B0A03F007031846BD4680BCFB
:1008AC00704700BF00ED00E080B483B000AF03469A
:1008BC003960FB7197F90730002B0ADB3B68DAB221
:1008CC000C4997F907301201D2B20B4483F800237C
:1008DC000AE03B68DAB20849FB7903F00F03043BEA
:1008EC001201D2B20B441A7600BF0C37BD4680BC45
:1008FC00704700BF00E100E000ED00E080B489B07B
:10090C0000AFF860B9607A60FB6803F00703FB6125
:10091C00FB69C3F10703042B28BF0423BB61FB69EC
:10092C000433062B02D9FB69033B00E000237B61F7
:10093C004FF0FF32BB6902FA03F3DA43BB681A408B
:10094C007B699A404FF0FF317B6901FA03F3D9437D
:10095C007B680B40134318462437BD4680BC704758
:10096C0080B582B000AF78607B68013BB3F1807FCB
:10097C0001D301230FE00A4A7B68013B53600F212E
:10098C004FF0FF30FFF790FF054B00229A60044BAD
:10099C0007221A60002318460837BD4680BD00BFE9
:1009AC0010E000E080B582B000AF78607868FFF7A7
:1009BC0049FF00BF0837BD4680BD80B586B000AF8B
:1009CC000346B9607A60FB7300237B61FFF75EFF1F
:1009DC0078617A68B9687869FFF790FF024697F9F1
:1009EC000F3011461846FFF75FFF00BF1837BD46A2
:1009FC0080BD80B582B000AF78607868FFF7B0FF3B
:100A0C00034618460837BD4680BD0000F8B500BF48
:100A1C00F8BC08BC9E467047F8B500BFF8BC08BCD3
:040A2C009E4670472B
:040A30007501000844
:040A34004D01000868
:0C0A380000127A00100000000100000015
:040000050800038567
:00000001FF
